:04000000A3EF0DF06D
:101000000000250E326E1FEC0DF0020E366E450EFE
:10101000356EAA0EE82EFED7352EFCD7362EFAD71F
:10102000250E326E1FEC0DF0260E326E1FEC0DF009
:10103000020E366E450E356EAA0EE82EFED7352E00
:10104000FCD7362EFAD7260E326E1FEC0DF0270E87
:10105000326E1FEC0DF0020E366E450E356EAA0E86
:10106000E82EFED7352EFCD7362EFAD7270E326E55
:101070001FEC0DF0280E326E1FEC0DF0020E366ED6
:10108000450E356EAA0EE82EFED7352EFCD7362E2D
:10109000FAD7280E326E1FEC0DF0290E326E1FECBF
:1010A0000DF0020E366E450E356EAA0EE82EFED7F6
:1010B000352EFCD7362EFAD7290E326E1FEC0DF0E6
:1010C0002A0E326E1FEC0DF0020E366E450E356E96
:1010D000AA0EE82EFED7352EFCD7362EFAD72A0ECA
:1010E000326E1FEC0DF02B0E326E1FEC0DF0020E67
:1010F000366E450E356EAA0EE82EFED7352EFCD77D
:10110000362EFAD72B0E326E1FEC0DF02C0E326EEF
:101110001FEC0DF0020E366E450E356EAA0EE82E4F
:10112000FED7352EFCD7362EFAD72C0E326E1FEC9A
:101130000DF012002C0E326E1FEC0DF0020E366E0A
:10114000450E356EAA0EE82EFED7352EFCD7362E6C
:10115000FAD72C0E326E1FEC0DF02B0E326E1FECF8
:101160000DF0020E366E450E356EAA0EE82EFED735
:10117000352EFCD7362EFAD72B0E326E1FEC0DF023
:101180002A0E326E1FEC0DF0020E366E450E356ED5
:10119000AA0EE82EFED7352EFCD7362EFAD72A0E09
:1011A000326E1FEC0DF0290E326E1FEC0DF0020EA8
:1011B000366E450E356EAA0EE82EFED7352EFCD7BC
:1011C000362EFAD7290E326E1FEC0DF0280E326E35
:1011D0001FEC0DF0020E366E450E356EAA0EE82E8F
:1011E000FED7352EFCD7362EFAD7280E326E1FECDE
:1011F0000DF0270E326E1FEC0DF0020E366E450E0E
:10120000356EAA0EE82EFED7352EFCD7362EFAD72D
:10121000270E326E1FEC0DF0260E326E1FEC0DF015
:10122000020E366E450E356EAA0EE82EFED7352E0E
:10123000FCD7362EFAD7260E326E1FEC0DF0250E97
:10124000326E1FEC0DF0020E366E450E356EAA0E94
:10125000E82EFED7352EFCD7362EFAD7250E326E65
:101260001FEC0DF01200010E336E2D50D8B43BEF81
:1012700009F03DEF09F04DEF09F02D50D96EDA6A13
:10128000DF30E832E832070B2E6E070E2E644BEF8C
:1012900009F04DEF09F0A4EF09F0000E336EBAEF3C
:1012A00009F02D50D96EDA6ADF30E832E832070BE8
:1012B0002E6E010E2F6E2E2A60EF09F0D8902F3679
:1012C0002E2E5EEF09F02F50FF0A306E2D50D96E92
:1012D000DA6ADF50070B020DF350150FD96EDA6A88
:1012E000DECF31F0DDCF32F031C0D9FF32C0DAFFCE
:1012F0003050DF16BAEF09F02D50D96EDA6ADF30C0
:10130000E832E832070B2E6E010E2F6E2E2A8BEF7D
:1013100009F0D8902F362E2E89EF09F02D50D96E76
:10132000DA6ADF50070B020DF350150FD96EDA6A37
:10133000DECF30F0DDCF31F030C0D9FF31C0DAFF81
:101340002F50DF12BAEF09F02D50D96EDA6ADFBCE8
:10135000ACEF09F0AFEF09F0010EB0EF09F0000EAD
:10136000000AD8B451EF09F0010AD8B47CEF09F0B3
:101370004DEF09F033501200010E346E2D50D8B4E9
:10138000C4EF09F0C6EF09F0D6EF09F02D50D96E81
:10139000DA6ADF30E832E832070B2F6E070E2F646F
:1013A000D4EF09F0D6EF09F02DEF0AF0000E346EFD
:1013B00042EF0AF02D50D96EDA6ADF30E832E832B7
:1013C000070B2F6E010E306E2F2AE9EF09F0D8902F
:1013D00030362F2EE7EF09F03050FF0A316E2D50D6
:1013E000D96EDA6ADF50070B020DF3500B0FD96E7E
:1013F000DA6ADECF32F0DDCF33F032C0D9FF33C04E
:10140000DAFF3150DF1642EF0AF02D50D96EDA6A5A
:10141000DF30E832E832070B2F6E010E306E2F2AD4
:1014200014EF0AF0D89030362F2E12EF0AF02D501C
:10143000D96EDA6ADF50070B020DF3500B0FD96E2D
:10144000DA6ADECF31F0DDCF32F031C0D9FF32C001
:10145000DAFF3050DF1242EF0AF02E502F6E306A62
:101460003050000AD8B437EF0AF0D6EF09F02F5009
:10147000000AD8B4DAEF09F0010AD8B405EF0AF08F
:10148000D6EF09F0345012002C0E326E1FEC0DF026
:10149000250E326E1FEC0DF0020E366E860E356E86
:1014A000990EE82EFED7352EFCD7362EFAD700003F
:1014B0002B0E326E1FEC0DF0260E326E1FEC0DF06F
:1014C000020E366E860E356E990EE82EFED7352E3C
:1014D000FCD7362EFAD70000270E326E1FEC0DF027
:1014E0002A0E326E1FEC0DF0020E366E860E356E31
:1014F000990EE82EFED7352EFCD7362EFAD70000EF
:10150000290E326E1FEC0DF0280E326E1FEC0DF01E
:10151000020E366E860E356E990EE82EFED7352EEB
:10152000FCD7362EFAD70000290E326E1FEC0DF0D4
:10153000280E326E1FEC0DF0270E326E1FEC0DF0F0
:101540002A0E326E1FEC0DF02B0E326E1FEC0DF0DA
:10155000260E326E1FEC0DF0250E326E1FEC0DF0D4
:101560002C0E326E1FEC0DF012007EEC0DF0210EF1
:10157000336E240E346E8CEC0BF0436E2450D8A4E2
:10158000C4EF0AF0C6EF0AF0D7EF0AF03C4A3D2A52
:101590003D5009E1650E3C5CD8A0D1EF0AF0D3EFD5
:1015A0000AF0DDEF0AF0000E206EDDEF0AF0000E0B
:1015B0003D6E000E3C6E010E206E1F502018D8B4F8
:1015C000E4EF0AF0E6EF0AF0B7EF0AF020C01FF0F0
:1015D0002050D8A4EEEF0AF0F0EF0AF0B7EF0AF0CF
:1015E000040E3E18D8A4F7EF0AF0F9EF0AF0FBEF6B
:1015F0000AF0000E3E6E3E2A0EEF0BF025EC0BF0CB
:10160000B7EF0AF09AEC08F0B7EF0AF001EC08F037
:10161000B7EF0AF044EC0AF0B7EF0AF03E50010AC7
:10162000D8B4FEEF0AF0030AD8B402EF0BF0010AB7
:10163000D8B406EF0BF0070AD8B40AEF0BF021EF8D
:101640000BF0B7EF0AF000EF00F02C0E356E73ECE4
:101650000CF0436E2B0E356E73EC0CF0436E2A0EBD
:10166000356E73EC0CF0436E290E356E73EC0CF096
:10167000436E280E356E73EC0CF0436E270E356EFC
:1016800073EC0CF0436E260E356E73EC0CF0436E6B
:10169000250E356E73EC0CF0436E030E3A6E8A0E17
:1016A000396E560EE82EFED7392EFCD73A2EFAD7D1
:1016B0002C0E356EADEC0CF0436E2B0E356EADEC92
:1016C0000CF0436E2A0E356EADEC0CF0436E290E15
:1016D000356EADEC0CF0436E280E356EADEC0CF0B3
:1016E000436E270E356EADEC0CF0436E260E356E54
:1016F000ADEC0CF0436E250E356EADEC0CF0436E88
:10170000030E3A6E8A0E396E560EE82EFED7392E2B
:10171000FCD73A2EFAD71200000E376E3350D8B4E9
:1017200094EF0BF096EF0BF09EEF0BF03450D8A433
:101730009CEF0BF09EEF0BF0A2EF0BF0000E366E5D
:10174000E3EF0BF033C02DF0370E2E6EE5EC0BF00F
:101750003350D96EDA6A020ED926DF50D8A4B3EF1F
:101760000BF0B5EF0BF0CAEF0BF03704D8A4BBEFCA
:101770000BF0BDEF0BF0C3EF0BF03450D96EDA6A0B
:10178000DF6AE1EF0BF03450D96EDA6A010EDF6EDA
:10179000E1EF0BF03350D96EDA6A020ED926DE047F
:1017A000D8A4D5EF0BF0D7EF0BF0E1EF0BF0370437
:1017B000D8A4DDEF0BF0DFEF0BF0BDEF0BF0C3EFC4
:1017C0000BF0010E366E365012002D50D8B4EBEFF0
:1017D0000BF0EDEF0BF005EF0CF02E50D8B4F3EF5B
:1017E0000BF0F5EF0BF005EF0CF02D50D96EDA6A27
:1017F000DF30E832E832070B2F6E070E2F6403EF5D
:101800000CF005EF0CF007EF0CF031EF0CF02E5060
:10181000D96EDA6A2D50E16EE26AE730E832E832DA
:10182000070B2F6E2D50E16EE26AE750070B020D99
:10183000F350010FE16EE26AE6CF30F0E5CF31F010
:1018400030C0E1FF31C0E2FFE750326E2F2A2BEFAC
:101850000CF0D89032322F2E29EF0CF03250010BC1
:10186000DF6E12002D50D8B438EF0CF03AEF0CF0C8
:101870004AEF0CF02D50D96EDA6ADF30E832E832E8
:10188000070B2E6E070E2E6448EF0CF04AEF0CF09B
:101890004CEF0CF072EF0CF02D50D96EDA6ADF309D
:1018A000E832E832070B2E6E010E2F6E2E2A5BEF08
:1018B0000CF0D8902F362E2E59EF0CF02D50D96EFB
:1018C000DA6ADF50070B020DF3500B0FD96EDA6A9C
:1018D000DECF30F0DDCF31F030C0D9FF31C0DAFFDC
:1018E0002F50DF1A1200010E376E3550D8A47BEF4F
:1018F0000CF07DEF0CF081EF0CF0000E376EABEFCB
:101900000CF041C038F03550D96EDA6ADF500F0B59
:10191000366E38503618F80B3618386E3550D96E8A
:10192000DA6ADF38070B366E3646364636463850AA
:101930003618C70B3618386E389C3550D96EDA6AAF
:10194000DFAE02D0388E01D0389E380E2D6E010EDB
:101950002E6EBCEC09F037501200010E376E355078
:10196000D8A4B5EF0CF0B7EF0CF0BBEF0CF0000E05
:10197000376EE5EF0CF040C038F03550D96EDA6ABA
:10198000DF500F0B366E38503618F80B3618386E9D
:101990003550D96EDA6ADF38070B366E3646364672
:1019A000364638503618C70B3618386E389C3550C6
:1019B000D96EDA6ADFAE02D0388E01D0389E380E8A
:1019C0002D6E000E2E6EBCEC09F037501200010E89
:1019D0003A6E3850D8A4EFEF0CF0F1EF0CF0F5EFC1
:1019E0000CF0000E3A6E1DEF0DF042C03BF0385087
:1019F000D96EDA6ADF500F0B396E3B503918F80B8D
:101A000039183B6E3850D96EDA6ADF38070B396EF9
:101A10003946394639463B503918C70B39183B6EA1
:101A20003B9C3850D96EDA6ADFAE02D03B8E01D0D3
:101A30003B9E3B0E356E52EC0DF03A501200325088
:101A4000D8A425EF0DF027EF0DF029EF0DF051EFA1
:101A50000DF03FC034F03250D96EDA6ADF500F0B10
:101A6000336E34503318F80B3318346E3250D96E4D
:101A7000DA6ADF38070B336E334633463346345069
:101A80003318C70B3318346E349C3250D96EDA6A6F
:101A9000DFAE02D0348E01D0349E340E2D6E32EC87
:101AA0000CF012003550D8B458EF0DF05AEF0DF08D
:101AB0006AEF0DF03550D96EDA6ADF30E832E8327D
:101AC000070B366E070E366468EF0DF06AEF0DF007
:101AD0006CEF0DF07DEF0DF035C02DF033EC09F01B
:101AE000376E35C02DF03550D96EDA6A000EDFBE84
:101AF000010E2E6EBCEC09F0376E12002C0E386E03
:101B0000E7EC0CF02B0E386EE7EC0CF02A0E386E7A
:101B1000E7EC0CF0290E386EE7EC0CF0280E386E6E
:101B2000E7EC0CF0270E386EE7EC0CF0260E386E62
:101B3000E7EC0CF0250E386EE7EC0CF0210E346E5D
:101B4000D4EC0DF012007C0EF66E1B0EF76E000E3C
:101B5000F86E00EE01F010EE2CF00900F5CFEEFF6C
:101B6000E550E150FAE100EE3CF0070EEE6AE806BF
:101B7000FDE1000EF86E0001B5EF0AF0800F810F55
:101B8000820F830F840F890F8A0F8B0F8C0F8D0F9D
:101B9000920F930F940F950F960F010143010001CF
:101BA00072625242322212023450D8A4DAEF0DF09F
:101BB000DCEF0DF0E0EF0DF0000E356EE5EF0DF00F
:0E1BC00034C02DF033EC09F0356E35501200B4
:020000040030CA
:0E000000FF02091EFF8181FF0FC00FE00F40BD
:00000001FF
