:0400000075EF09F09F
:101000000000010E296E2250D8B409EF08F00BEF52
:1010100008F01BEF08F02250D96EDA6ADF30E832B0
:10102000E832070B246E070E246419EF08F01BEF5B
:1010300008F072EF08F0000E296E87EF08F02250DA
:10104000D96EDA6ADF30E832E832070B246E010E1F
:10105000256E242A2EEF08F0D8902536242E2CEF6A
:1010600008F02550FF0A266E2250D96EDA6ADF504A
:10107000070B020DF3500B0FD96EDA6ADECF27F0A3
:10108000DDCF28F027C0D9FF28C0DAFF2650DF16B1
:1010900087EF08F02250D96EDA6ADF30E832E832A2
:1010A000070B246E010E256E242A59EF08F0D89004
:1010B0002536242E57EF08F02250D96EDA6ADF5019
:1010C000070B020DF3500B0FD96EDA6ADECF26F054
:1010D000DDCF27F026C0D9FF27C0DAFF2550DF1269
:1010E00087EF08F02350246E256A2550000AD8B4F3
:1010F0007CEF08F01BEF08F02450000AD8B41FEF73
:1011000008F0010AD8B44AEF08F01BEF08F02950A4
:1011100012002250D8B48FEF08F091EF08F0A1EF41
:1011200008F02250D96EDA6ADF30E832E832070B75
:10113000236E070E23649FEF08F0A1EF08F0F6EF8F
:1011400008F00CEF09F02250D96EDA6ADF30E8328D
:10115000E832070B236E010E246E232AB2EF08F04B
:10116000D8902436232EB0EF08F02450FF0A256EC5
:101170002250D96EDA6ADF50070B020DF350150FBB
:10118000D96EDA6ADECF26F0DDCF27F026C0D9FF90
:1011900027C0DAFF2550DF160CEF09F02250D96E78
:1011A000DA6ADF30E832E832070B236E010E246E74
:1011B000232ADDEF08F0D8902436232EDBEF08F049
:1011C0002250D96EDA6ADF50070B020DF350150F6B
:1011D000D96EDA6ADECF25F0DDCF26F025C0D9FF43
:1011E00026C0DAFF2450DF120CEF09F02250D96E2E
:1011F000DA6ADFBCFEEF08F001EF09F0010E02EF42
:1012000009F0000E000AD8B4A3EF08F0010AD8B420
:10121000CEEF08F0A1EF08F012009CEC09F0210ECF
:10122000226E010E236E01EC08F02C6E200E226E51
:10123000000E236E01EC08F02C6E1F0E226E000EC5
:10124000236E01EC08F02C6E1F0E2B6E710E2A6EB1
:101250001E0EE82EFED72A2EFCD72B2EFAD700D052
:10126000210E226E000E236E01EC08F02C6E200E73
:10127000226E010E236E01EC08F02C6E1F0E226E02
:10128000000E236E01EC08F02C6E060E2B6E130E72
:101290002A6EAE0EE82EFED72A2EFCD72B2EFAD7BA
:1012A000210E226E000E236E01EC08F02C6E200E33
:1012B000226E000E236E01EC08F02C6E1F0E226EC3
:1012C000010E236E01EC08F02C6E1F0E2B6E710EBA
:1012D0002A6E1E0EE82EFED72A2EFCD72B2EFAD70A
:1012E00000D00FEF09F000EF00F0160EF66E130EAF
:1012F000F76E000EF86E00EE01F010EE21F009001E
:10130000F5CFEEFFE550E150FAE12C6A000EF86EE1
:1013100000010DEF09F0800F810F820F830F840F02
:10132000890F8A0F8B0F8C0F8D0F920F930F940FD5
:07133000950F960F120A024F
:10133800210E226E89EC08F0200E226E89EC08F04E
:0A1348001F0E226E89EC08F012005F
:020000040030CA
:0E000000FF02091EFF8181FF0FC00FE00F40BD
:00000001FF
